{
  "address": "0x60D26f8065D43D4B6B8BB8f03aefe73A220461e3",
  "abi": [
    {
      "inputs": [
        {
          "internalType": "address",
          "name": "_singleEditionMintableCreatorAddress",
          "type": "address"
        },
        {
          "internalType": "address",
          "name": "_paymentSplitterFactoryAddress",
          "type": "address"
        }
      ],
      "stateMutability": "nonpayable",
      "type": "constructor"
    },
    {
      "anonymous": false,
      "inputs": [
        {
          "indexed": false,
          "internalType": "address",
          "name": "editionContractAddress",
          "type": "address"
        },
        {
          "indexed": false,
          "internalType": "uint256",
          "name": "editionId",
          "type": "uint256"
        }
      ],
      "name": "CreatedEdition",
      "type": "event"
    },
    {
      "anonymous": false,
      "inputs": [
        {
          "indexed": false,
          "internalType": "uint256",
          "name": "editionId",
          "type": "uint256"
        },
        {
          "indexed": false,
          "internalType": "uint256",
          "name": "price",
          "type": "uint256"
        },
        {
          "indexed": false,
          "internalType": "address",
          "name": "owner",
          "type": "address"
        }
      ],
      "name": "EditionSold",
      "type": "event"
    },
    {
      "anonymous": false,
      "inputs": [
        {
          "indexed": false,
          "internalType": "uint256",
          "name": "editionId",
          "type": "uint256"
        },
        {
          "indexed": false,
          "internalType": "uint256",
          "name": "amount",
          "type": "uint256"
        }
      ],
      "name": "PriceChanged",
      "type": "event"
    },
    {
      "inputs": [],
      "name": "NATIVE_CURRENCY",
      "outputs": [
        {
          "internalType": "address",
          "name": "",
          "type": "address"
        }
      ],
      "stateMutability": "view",
      "type": "function"
    },
    {
      "inputs": [
        {
          "internalType": "uint256",
          "name": "_amount",
          "type": "uint256"
        },
        {
          "internalType": "uint256",
          "name": "_editionId",
          "type": "uint256"
        }
      ],
      "name": "batchPurchase",
      "outputs": [],
      "stateMutability": "payable",
      "type": "function"
    },
    {
      "inputs": [
        {
          "components": [
            {
              "internalType": "string",
              "name": "name",
              "type": "string"
            },
            {
              "internalType": "string",
              "name": "symbol",
              "type": "string"
            },
            {
              "internalType": "string",
              "name": "description",
              "type": "string"
            },
            {
              "internalType": "string",
              "name": "animationUrl",
              "type": "string"
            },
            {
              "internalType": "bytes32",
              "name": "animationHash",
              "type": "bytes32"
            },
            {
              "internalType": "string",
              "name": "imageUrl",
              "type": "string"
            },
            {
              "internalType": "bytes32",
              "name": "imageHash",
              "type": "bytes32"
            },
            {
              "internalType": "uint256",
              "name": "editionSize",
              "type": "uint256"
            },
            {
              "internalType": "uint256",
              "name": "royaltyBPS",
              "type": "uint256"
            },
            {
              "internalType": "uint256",
              "name": "salePrice",
              "type": "uint256"
            },
            {
              "internalType": "address",
              "name": "owner",
              "type": "address"
            }
          ],
          "internalType": "struct CuratorEditions.EditionData",
          "name": "_editionData",
          "type": "tuple"
        },
        {
          "components": [
            {
              "internalType": "string",
              "name": "title",
              "type": "string"
            },
            {
              "internalType": "address[]",
              "name": "payees",
              "type": "address[]"
            },
            {
              "internalType": "uint256[]",
              "name": "shares",
              "type": "uint256[]"
            }
          ],
          "internalType": "struct CuratorEditions.SplitData",
          "name": "_splitData",
          "type": "tuple"
        }
      ],
      "name": "createCuratorEdition",
      "outputs": [
        {
          "internalType": "uint256",
          "name": "",
          "type": "uint256"
        }
      ],
      "stateMutability": "nonpayable",
      "type": "function"
    },
    {
      "inputs": [
        {
          "internalType": "uint256",
          "name": "",
          "type": "uint256"
        }
      ],
      "name": "editionIdToSalePrice",
      "outputs": [
        {
          "internalType": "uint256",
          "name": "",
          "type": "uint256"
        }
      ],
      "stateMutability": "view",
      "type": "function"
    },
    {
      "inputs": [
        {
          "internalType": "uint256",
          "name": "",
          "type": "uint256"
        }
      ],
      "name": "editionIdToSplitter",
      "outputs": [
        {
          "internalType": "address",
          "name": "",
          "type": "address"
        }
      ],
      "stateMutability": "view",
      "type": "function"
    },
    {
      "inputs": [
        {
          "internalType": "uint256",
          "name": "_editionId",
          "type": "uint256"
        }
      ],
      "name": "getBalance",
      "outputs": [
        {
          "internalType": "uint256",
          "name": "",
          "type": "uint256"
        }
      ],
      "stateMutability": "view",
      "type": "function"
    },
    {
      "inputs": [
        {
          "internalType": "uint256",
          "name": "_editionId",
          "type": "uint256"
        }
      ],
      "name": "getEditionAddress",
      "outputs": [
        {
          "internalType": "address",
          "name": "",
          "type": "address"
        }
      ],
      "stateMutability": "view",
      "type": "function"
    },
    {
      "inputs": [],
      "name": "paymentSplitterFactoryAddress",
      "outputs": [
        {
          "internalType": "address",
          "name": "",
          "type": "address"
        }
      ],
      "stateMutability": "view",
      "type": "function"
    },
    {
      "inputs": [
        {
          "internalType": "uint256",
          "name": "_editionId",
          "type": "uint256"
        }
      ],
      "name": "purchase",
      "outputs": [
        {
          "internalType": "uint256",
          "name": "",
          "type": "uint256"
        }
      ],
      "stateMutability": "payable",
      "type": "function"
    },
    {
      "inputs": [
        {
          "internalType": "uint256",
          "name": "_editionId",
          "type": "uint256"
        },
        {
          "internalType": "uint256",
          "name": "_salePrice",
          "type": "uint256"
        }
      ],
      "name": "setSalePrice",
      "outputs": [],
      "stateMutability": "nonpayable",
      "type": "function"
    },
    {
      "inputs": [],
      "name": "singleEditionMintableCreatorAddress",
      "outputs": [
        {
          "internalType": "address",
          "name": "",
          "type": "address"
        }
      ],
      "stateMutability": "view",
      "type": "function"
    },
    {
      "inputs": [
        {
          "internalType": "uint256",
          "name": "_editionId",
          "type": "uint256"
        }
      ],
      "name": "withdraw",
      "outputs": [],
      "stateMutability": "nonpayable",
      "type": "function"
    }
  ],
  "transactionHash": "0x667b32f4566e2d3ba6746e28acf3e3682b21504851636022f45f17a864f88edc",
  "args": [
    "0xb01912a8a2b21B181fcD0a22CF85Bf10d9BffB69",
    "0x05220F0b301277ae7A653283c75797a4eBb7f9Ea"
  ],
  "solcInputHash": "b80bf01cf022257da5f3875ae67c1382",
  "bytecode": "0x608060405234801561001057600080fd5b506040516114e23803806114e283398101604081905261002f9161007c565b600080546001600160a01b039384166001600160a01b031991821617909155600180549290931691161790556100af565b80516001600160a01b038116811461007757600080fd5b919050565b6000806040838503121561008f57600080fd5b61009883610060565b91506100a660208401610060565b90509250929050565b611424806100be6000396000f3fe6080604052600436106100a75760003560e01c8063519e9dca11610064578063519e9dca1461019057806353d943f8146101b05780636b684cb8146101c3578063def45669146101e3578063efef39a114610219578063f17877761461022c57600080fd5b8063053992c5146100ac57806317c9cd27146100ce5780631e010439146101015780632e1a7d4d146101215780633daebf881461014157806349f426501461016e575b600080fd5b3480156100b857600080fd5b506100cc6100c7366004611086565b61024c565b005b3480156100da57600080fd5b506100ee6100e9366004610eea565b6103e1565b6040519081526020015b60405180910390f35b34801561010d57600080fd5b506100ee61011c366004611054565b6106ff565b34801561012d57600080fd5b506100cc61013c366004611054565b610793565b34801561014d57600080fd5b506100ee61015c366004611054565b60036020526000908152604090205481565b34801561017a57600080fd5b50610183600081565b6040516100f891906110f5565b34801561019c57600080fd5b50600154610183906001600160a01b031681565b6100cc6101be366004611086565b610805565b3480156101cf57600080fd5b50600054610183906001600160a01b031681565b3480156101ef57600080fd5b506101836101fe366004611054565b6002602052600090815260409020546001600160a01b031681565b6100ee610227366004611054565b610a43565b34801561023857600080fd5b50610183610247366004611054565b610c5e565b6000805460405163ac52edfd60e01b8152600481018590526001600160a01b039091169190829063ac52edfd9060240160206040518083038186803b15801561029457600080fd5b505afa1580156102a8573d6000803e3d6000fd5b505050506040513d601f19601f820116820180604052508101906102cc9190610ecd565b9050806001600160a01b0316638da5cb5b6040518163ffffffff1660e01b815260040160206040518083038186803b15801561030757600080fd5b505afa15801561031b573d6000803e3d6000fd5b505050506040513d601f19601f8201168201806040525081019061033f9190610ecd565b6001600160a01b0316336001600160a01b0316146103905760405162461bcd60e51b81526020600482015260096024820152682327a92124a22222a760b91b60448201526064015b60405180910390fd5b60008481526003602090815260409182902085905581518681529081018590527f8aa4fa52648a6d15edce8a179c792c86f3719d0cc3c572cf90f91948f0f2cb68910160405180910390a150505050565b60008054835160208501516040808701516060880151608089015160a08a015160c08b015160e08c01516101008d01519651636606648d60e01b81526001600160a01b03909a16998b998b99636606648d9961044d999298919792969195929491938d906004016111a8565b602060405180830381600087803b15801561046757600080fd5b505af115801561047b573d6000803e3d6000fd5b505050506040513d601f19601f8201168201806040525081019061049f919061106d565b6001548551602087015160408089015190516320e3a5c360e21b81529495506000946001600160a01b039094169363838e970c936104e69333939192909190600401611109565b602060405180830381600087803b15801561050057600080fd5b505af1158015610514573d6000803e3d6000fd5b505050506040513d601f19601f820116820180604052508101906105389190610ecd565b60405163ac52edfd60e01b8152600481018490529091506000906001600160a01b0385169063ac52edfd9060240160206040518083038186803b15801561057e57600080fd5b505afa158015610592573d6000803e3d6000fd5b505050506040513d601f19601f820116820180604052508101906105b69190610ecd565b6040516329ec16dd60e01b8152306004820152600160248201529091506001600160a01b038216906329ec16dd90604401600060405180830381600087803b15801561060157600080fd5b505af1158015610615573d6000803e3d6000fd5b50505061014088015160405163f2fde38b60e01b81526001600160a01b038416925063f2fde38b91610649916004016110f5565b600060405180830381600087803b15801561066357600080fd5b505af1158015610677573d6000803e3d6000fd5b505050600084815260026020908152604080832080546001600160a01b0319166001600160a01b03888116919091179091556101208c0151600384529382902093909355805192851683529082018690527f3e3a65041d8e144eecb9f28b56df83d04a8bb2c5f058212bb1f70c65f8f953e892500160405180910390a1509095945050505050565b60008181526002602052604080822054905163d4fac45d60e01b8152600481018390523360248201526001600160a01b039091169063d4fac45d9060440160206040518083038186803b15801561075557600080fd5b505afa158015610769573d6000803e3d6000fd5b505050506040513d601f19601f8201168201806040525081019061078d919061106d565b92915050565b60008181526002602052604080822054905163122dd41160e21b815260048101929092523360248301526001600160a01b0316906348b7504490604401600060405180830381600087803b1580156107ea57600080fd5b505af11580156107fe573d6000803e3d6000fd5b5050505050565b6000818152600260209081526040808320546003909252909120546001600160a01b0390911690806108495760405162461bcd60e51b81526004016103879061128d565b6108538482611370565b34146108715760405162461bcd60e51b815260040161038790611266565b6000805460405163ac52edfd60e01b8152600481018690526001600160a01b039091169063ac52edfd9060240160206040518083038186803b1580156108b657600080fd5b505afa1580156108ca573d6000803e3d6000fd5b505050506040513d601f19601f820116820180604052508101906108ee9190610ecd565b905060005b858110156109c75760405163a66ff0af60e01b81526001600160a01b0383169063a66ff0af906109279033906004016110f5565b602060405180830381600087803b15801561094157600080fd5b505af1158015610955573d6000803e3d6000fd5b505050506040513d601f19601f82011682018060405250810190610979919061106d565b507fb12a38f2cd7176b8b381b6ee2ce1d59867557816d9aafbcb9420b74010c828f58584336040516109ad939291906112b3565b60405180910390a1806109bf8161138f565b9150506108f3565b506000836001600160a01b03163460405160006040518083038185875af1925050503d8060008114610a15576040519150601f19603f3d011682016040523d82523d6000602084013e610a1a565b606091505b5050905080610a3b5760405162461bcd60e51b81526004016103879061123e565b505050505050565b60008181526002602090815260408083205460039092528220546001600160a01b039091169080610a865760405162461bcd60e51b81526004016103879061128d565b803414610aa55760405162461bcd60e51b815260040161038790611266565b6000805460405163ac52edfd60e01b8152600481018790526001600160a01b039091169063ac52edfd9060240160206040518083038186803b158015610aea57600080fd5b505afa158015610afe573d6000803e3d6000fd5b505050506040513d601f19601f82011682018060405250810190610b229190610ecd565b90506000816001600160a01b031663a66ff0af336040518263ffffffff1660e01b8152600401610b5291906110f5565b602060405180830381600087803b158015610b6c57600080fd5b505af1158015610b80573d6000803e3d6000fd5b505050506040513d601f19601f82011682018060405250810190610ba4919061106d565b90507fb12a38f2cd7176b8b381b6ee2ce1d59867557816d9aafbcb9420b74010c828f5868433604051610bd9939291906112b3565b60405180910390a16000846001600160a01b03163460405160006040518083038185875af1925050503d8060008114610c2e576040519150601f19603f3d011682016040523d82523d6000602084013e610c33565b606091505b5050905080610c545760405162461bcd60e51b81526004016103879061123e565b5095945050505050565b6000805460405163ac52edfd60e01b8152600481018490526001600160a01b0390911690819063ac52edfd9060240160206040518083038186803b158015610ca557600080fd5b505afa158015610cb9573d6000803e3d6000fd5b505050506040513d601f19601f82011682018060405250810190610cdd9190610ecd565b9392505050565b8035610cef816113d6565b919050565b600082601f830112610d0557600080fd5b81356020610d1a610d158361134d565b61131d565b80838252828201915082860187848660051b8901011115610d3a57600080fd5b60005b85811015610d5957813584529284019290840190600101610d3d565b5090979650505050505050565b600082601f830112610d7757600080fd5b81356001600160401b03811115610d9057610d906113c0565b610da3601f8201601f191660200161131d565b818152846020838601011115610db857600080fd5b816020850160208301376000918101602001919091529392505050565b600060608284031215610de757600080fd5b610def6112d2565b905081356001600160401b0380821115610e0857600080fd5b610e1485838601610d66565b8352602091508184013581811115610e2b57600080fd5b8401601f81018613610e3c57600080fd5b8035610e4a610d158261134d565b80828252858201915085840189878560051b8701011115610e6a57600080fd5b600094505b83851015610e96578035610e82816113d6565b835260019490940193918601918601610e6f565b508086880152505050506040840135915080821115610eb457600080fd5b50610ec184828501610cf4565b60408301525092915050565b600060208284031215610edf57600080fd5b8151610cdd816113d6565b60008060408385031215610efd57600080fd5b82356001600160401b0380821115610f1457600080fd5b908401906101608287031215610f2957600080fd5b610f316112fa565b823582811115610f4057600080fd5b610f4c88828601610d66565b825250602083013582811115610f6157600080fd5b610f6d88828601610d66565b602083015250604083013582811115610f8557600080fd5b610f9188828601610d66565b604083015250606083013582811115610fa957600080fd5b610fb588828601610d66565b6060830152506080830135608082015260a083013582811115610fd757600080fd5b610fe388828601610d66565b60a08301525060c083013560c082015260e083013560e0820152610100808401358183015250610120808401358183015250610140611023818501610ce4565b908201529350602085013591508082111561103d57600080fd5b5061104a85828601610dd5565b9150509250929050565b60006020828403121561106657600080fd5b5035919050565b60006020828403121561107f57600080fd5b5051919050565b6000806040838503121561109957600080fd5b50508035926020909101359150565b6000815180845260005b818110156110ce576020818501810151868301820152016110b2565b818111156110e0576000602083870101525b50601f01601f19169290920160200192915050565b6001600160a01b0391909116815260200190565b600060018060a01b038087168352602060808185015261112c60808501886110a8565b848103604086015286518082528288019183019060005b81811015611161578351861683529284019291840191600101611143565b5050858103606087015286518082529083019350905081860160005b828110156111995781518552938301939083019060010161117d565b50929998505050505050505050565b60006101408083526111bc8184018e6110a8565b905082810360208401526111d0818d6110a8565b905082810360408401526111e4818c6110a8565b905082810360608401526111f8818b6110a8565b905088608084015282810360a084015261121281896110a8565b9150508560c08301528460e083015283610100830152826101208301529b9a5050505050505050505050565b6020808252600e908201526d29a82624aa2a22a92fa2a92927a960911b604082015260600190565b6020808252600d908201526c494e56414c49445f505249434560981b604082015260600190565b6020808252600c908201526b4e4f545f464f525f53414c4560a01b604082015260600190565b92835260208301919091526001600160a01b0316604082015260600190565b604051606081016001600160401b03811182821017156112f4576112f46113c0565b60405290565b60405161016081016001600160401b03811182821017156112f4576112f46113c0565b604051601f8201601f191681016001600160401b0381118282101715611345576113456113c0565b604052919050565b60006001600160401b03821115611366576113666113c0565b5060051b60200190565b600081600019048311821515161561138a5761138a6113aa565b500290565b60006000198214156113a3576113a36113aa565b5060010190565b634e487b7160e01b600052601160045260246000fd5b634e487b7160e01b600052604160045260246000fd5b6001600160a01b03811681146113eb57600080fd5b5056fea2646970667358221220f5fae5502f16e8df739dd2fc597a0138b8d4e87e85df0dee41a5ed22210b2f8b64736f6c63430008060033",
  "devdoc": {
    "kind": "dev",
    "methods": {},
    "version": 1
  },
  "userdoc": {
    "kind": "user",
    "methods": {},
    "version": 1
  },
  "storageLayout": {
    "storage": [
      {
        "astId": 711,
        "contract": "contracts/CuratorEditions.sol:CuratorEditions",
        "label": "singleEditionMintableCreatorAddress",
        "offset": 0,
        "slot": "0",
        "type": "t_address"
      },
      {
        "astId": 713,
        "contract": "contracts/CuratorEditions.sol:CuratorEditions",
        "label": "paymentSplitterFactoryAddress",
        "offset": 0,
        "slot": "1",
        "type": "t_address"
      },
      {
        "astId": 717,
        "contract": "contracts/CuratorEditions.sol:CuratorEditions",
        "label": "editionIdToSplitter",
        "offset": 0,
        "slot": "2",
        "type": "t_mapping(t_uint256,t_address)"
      },
      {
        "astId": 721,
        "contract": "contracts/CuratorEditions.sol:CuratorEditions",
        "label": "editionIdToSalePrice",
        "offset": 0,
        "slot": "3",
        "type": "t_mapping(t_uint256,t_uint256)"
      }
    ],
    "types": {
      "t_address": {
        "encoding": "inplace",
        "label": "address",
        "numberOfBytes": "20"
      },
      "t_mapping(t_uint256,t_address)": {
        "encoding": "mapping",
        "key": "t_uint256",
        "label": "mapping(uint256 => address)",
        "numberOfBytes": "32",
        "value": "t_address"
      },
      "t_mapping(t_uint256,t_uint256)": {
        "encoding": "mapping",
        "key": "t_uint256",
        "label": "mapping(uint256 => uint256)",
        "numberOfBytes": "32",
        "value": "t_uint256"
      },
      "t_uint256": {
        "encoding": "inplace",
        "label": "uint256",
        "numberOfBytes": "32"
      }
    }
  }
}