{
  "address": "0x05220F0b301277ae7A653283c75797a4eBb7f9Ea",
  "abi": [
    {
      "inputs": [],
      "stateMutability": "nonpayable",
      "type": "constructor"
    },
    {
      "anonymous": false,
      "inputs": [
        {
          "indexed": true,
          "internalType": "address",
          "name": "owner",
          "type": "address"
        },
        {
          "indexed": false,
          "internalType": "string",
          "name": "title",
          "type": "string"
        },
        {
          "indexed": false,
          "internalType": "address[]",
          "name": "payees",
          "type": "address[]"
        },
        {
          "indexed": false,
          "internalType": "uint256[]",
          "name": "shares",
          "type": "uint256[]"
        },
        {
          "indexed": false,
          "internalType": "address",
          "name": "splitter",
          "type": "address"
        }
      ],
      "name": "DeployPaymentSplitter",
      "type": "event"
    },
    {
      "inputs": [
        {
          "internalType": "address",
          "name": "owner",
          "type": "address"
        },
        {
          "internalType": "string",
          "name": "title",
          "type": "string"
        },
        {
          "internalType": "address[]",
          "name": "payees",
          "type": "address[]"
        },
        {
          "internalType": "uint256[]",
          "name": "shares",
          "type": "uint256[]"
        }
      ],
      "name": "deployPaymentSplitter",
      "outputs": [
        {
          "internalType": "address",
          "name": "splitter",
          "type": "address"
        }
      ],
      "stateMutability": "nonpayable",
      "type": "function"
    },
    {
      "inputs": [
        {
          "internalType": "address",
          "name": "query",
          "type": "address"
        }
      ],
      "name": "isPaymentSplitter",
      "outputs": [
        {
          "internalType": "bool",
          "name": "result",
          "type": "bool"
        }
      ],
      "stateMutability": "view",
      "type": "function"
    }
  ],
  "transactionHash": "0x8d1634a02e2732aaf8efb7a17c8865584e4ef653853472ad7ceed9b63c54a9f8",
  "args": [],
  "solcInputHash": "b80bf01cf022257da5f3875ae67c1382",
  "bytecode": "0x608060405234801561001057600080fd5b50600060405161001f9061015c565b604051809103906000f08015801561003b573d6000803e3d6000fd5b5060408051600180825281830190925291925060009190602080830190803683370190505090503381600081518110610076576100766101ff565b6001600160a01b0392909216602092830291909101909101526040805160018082528183019092526000918160200160208202803683370190505090506001816000815181106100c8576100c86101ff565b602090810291909101015260405163049e75cf60e31b81526001600160a01b038416906324f3ae78906101019085908590600401610169565b600060405180830381600087803b15801561011b57600080fd5b505af115801561012f573d6000803e3d6000fd5b5050600080546001600160a01b0319166001600160a01b0396909616959095179094555061021592505050565b6111258061080983390190565b6060815260006060820152600060808201602060808185015281865180845260a086019150828801935060005b818110156101bb5784516001600160a01b031683529383019391830191600101610196565b50508481036040860152855180825290820192508186019060005b818110156101f2578251855293830193918301916001016101d6565b5092979650505050505050565b634e487b7160e01b600052603260045260246000fd5b6105e5806102246000396000f3fe608060405234801561001057600080fd5b50600436106100365760003560e01c806328da4a791461003b578063838e970c14610063575b600080fd5b61004e610049366004610331565b61008e565b60405190151581526020015b60405180910390f35b610076610071366004610353565b6100ab565b6040516001600160a01b03909116815260200161005a565b600080546100a5906001600160a01b031683610161565b92915050565b60008054604051610107916001600160a01b0316906100d8908a908a908a908a908a908a9060240161050d565b60408051601f198184030181529190526020810180516001600160e01b031663049e75cf60e31b1790526101c2565b9050876001600160a01b03167f89bac4a62a028c1569fa1634d2c4f9c8f0685844f9f48689be50bfa7fbb7429e8888888888888860405161014e9796959493929190610556565b60405180910390a2979650505050505050565b6000808360601b905060405169363d3d373d3d3d363d7360b01b815281600a8201526e5af43d82803e903d91602b57fd5bf360881b601e82015260408101602d600082873c600d810151600d83015114815183511416935050505092915050565b6000808360601b9050604051733d602d80600a3d3981f3363d3d373d3d3d363d7360601b81528160148201526e5af43d82803e903d91602b57fd5bf360881b60288201526037816000f09250506000835111156102c2576000826001600160a01b03168460405161023391906104d2565b6000604051808303816000865af19150503d8060008114610270576040519150601f19603f3d011682016040523d82523d6000602084013e610275565b606091505b50509050806102c05760405162461bcd60e51b815260206004820152601360248201527253484f59553a2043414c4c5f4641494c55524560681b604482015260640160405180910390fd5b505b5092915050565b80356001600160a01b03811681146102e057600080fd5b919050565b60008083601f8401126102f757600080fd5b50813567ffffffffffffffff81111561030f57600080fd5b6020830191508360208260051b850101111561032a57600080fd5b9250929050565b60006020828403121561034357600080fd5b61034c826102c9565b9392505050565b60008060008060008060006080888a03121561036e57600080fd5b610377886102c9565b9650602088013567ffffffffffffffff8082111561039457600080fd5b818a0191508a601f8301126103a857600080fd5b8135818111156103b757600080fd5b8b60208285010111156103c957600080fd5b6020830198508097505060408a01359150808211156103e757600080fd5b6103f38b838c016102e5565b909650945060608a013591508082111561040c57600080fd5b506104198a828b016102e5565b989b979a50959850939692959293505050565b8183526000602080850194508260005b85811015610468576001600160a01b03610455836102c9565b168752958201959082019060010161043c565b509495945050505050565b81835260006001600160fb1b0383111561048c57600080fd5b8260051b8083602087013760009401602001938452509192915050565b81835281816020850137506000828201602090810191909152601f909101601f19169091010190565b6000825160005b818110156104f357602081860181015185830152016104d9565b81811115610502576000828501525b509190910192915050565b60608152600061052160608301888a6104a9565b828103602084015261053481878961042c565b90508281036040840152610549818587610473565b9998505050505050505050565b60808152600061056a60808301898b6104a9565b828103602084015261057d81888a61042c565b90508281036040840152610592818688610473565b91505060018060a01b03831660608301529897505050505050505056fea264697066735822122065582e04098a545f18f51e966aa161596732985fd98e6b5aa627b4e080c91f6164736f6c63430008060033608060405234801561001057600080fd5b50611105806100206000396000f3fe60806040526004361061007a5760003560e01c806324f3ae78146100bf5780633a98ef39146100e1578063406072a91461010a57806348b75044146101425780634a79d50c1461016257806363037b0c14610184578063ce7c2ac2146101bc578063d4fac45d146101e9578063d79779b21461020957600080fd5b366100ba577f6ef95f06320e7a25a04a175ca677b7052bdd97131872c2192525a629f51be77033346040516100b0929190610f42565b60405180910390a1005b600080fd5b3480156100cb57600080fd5b506100df6100da366004610e2f565b610236565b005b3480156100ed57600080fd5b506100f760025481565b6040519081526020015b60405180910390f35b34801561011657600080fd5b506100f7610125366004610dda565b600560209081526000928352604080842090915290825290205481565b34801561014e57600080fd5b506100df61015d366004610dda565b6103ea565b34801561016e57600080fd5b506101776105b0565b6040516101019190610f5b565b34801561019057600080fd5b506101a461019f366004610ef4565b61063e565b6040516001600160a01b039091168152602001610101565b3480156101c857600080fd5b506100f76101d7366004610dbf565b60046020526000908152604090205481565b3480156101f557600080fd5b506100f7610204366004610dda565b610668565b34801561021557600080fd5b506100f7610224366004610dbf565b60036020526000908152604090205481565b600054610100900460ff168061024f575060005460ff16155b6102b75760405162461bcd60e51b815260206004820152602e60248201527f496e697469616c697a61626c653a20636f6e747261637420697320616c72656160448201526d191e481a5b9a5d1a585b1a5e995960921b60648201526084015b60405180910390fd5b600054610100900460ff161580156102d9576000805461ffff19166101011790555b83821461031c5760405162461bcd60e51b815260206004820152601160248201527013115391d51214d7d393d517d154555053607a1b60448201526064016102ae565b8361035c5760405162461bcd60e51b815260206004820152601060248201526f13115391d51217d513d3d7d4d213d49560821b60448201526064016102ae565b61036860018888610cbe565b5060005b848110156103ce576103bc868683818110610389576103896110b9565b905060200201602081019061039e9190610dbf565b8585848181106103b0576103b06110b9565b9050602002013561072e565b806103c681611088565b91505061036c565b5080156103e1576000805461ff00191690555b50505050505050565b6001600160a01b03811660009081526004602052604090205461041f5760405162461bcd60e51b81526004016102ae90610f8e565b6001600160a01b038216600081815260036020526040812054909161044490306108b6565b61044e9190610fb1565b6001600160a01b03808516600090815260056020908152604080832093871683529281528282205460025460049092529282205493945090926104919085610feb565b61049b9190610fc9565b6104a5919061100a565b9050806104e15760405162461bcd60e51b815260206004820152600a6024820152691393d7d410565351539560b21b60448201526064016102ae565b6001600160a01b03808516600090815260056020908152604080832093871683529290529081208054839290610518908490610fb1565b90915550506001600160a01b03841660009081526003602052604081208054839290610545908490610fb1565b9091555061055f90506001600160a01b0385168483610957565b604080516001600160a01b038087168252851660208201529081018290527f8ac5b3c2902b21b6bbb4d99ec195e28a242cb6a1777804db10b84d91e20064299060600160405180910390a150505050565b600180546105bd9061104d565b80601f01602080910402602001604051908101604052809291908181526020018280546105e99061104d565b80156106365780601f1061060b57610100808354040283529160200191610636565b820191906000526020600020905b81548152906001019060200180831161061957829003601f168201915b505050505081565b6006818154811061064e57600080fd5b6000918252602090912001546001600160a01b0316905081565b6001600160a01b03811660009081526004602052604081205461069d5760405162461bcd60e51b81526004016102ae90610f8e565b6001600160a01b03831660008181526003602052604081205490916106c290306108b6565b6106cc9190610fb1565b6001600160a01b038086166000908152600560209081526040808320938816835292815282822054600254600490925292822054939450909261070f9085610feb565b6107199190610fc9565b610723919061100a565b925050505b92915050565b6001600160a01b0382166107765760405162461bcd60e51b815260206004820152600f60248201526e494e56414c49445f4144445245535360881b60448201526064016102ae565b600081116107b75760405162461bcd60e51b815260206004820152600e60248201526d494e56414c49445f53484152455360901b60448201526064016102ae565b6001600160a01b0382166000908152600460205260409020541561080d5760405162461bcd60e51b815260206004820152600d60248201526c1053149150511657d051111151609a1b60448201526064016102ae565b60068054600181019091557ff652222313e28459528d920b65115c16c04f3efc82aaedc97be59f3f377c0d3f0180546001600160a01b0319166001600160a01b0384169081179091556000908152600460205260409020819055600254610875908290610fb1565b6002556040517f40c340f65e17194d14ddddb073d3c9f888e3cb52b5aae0c6c7706b4fbc905fac906108aa9084908490610f42565b60405180910390a15050565b60006001600160a01b0383166108d757506001600160a01b03811631610728565b6040516370a0823160e01b81526001600160a01b0383811660048301528416906370a082319060240160206040518083038186803b15801561091857600080fd5b505afa15801561092c573d6000803e3d6000fd5b505050506040513d601f19601f820116820180604052508101906109509190610f0d565b9050610728565b6001600160a01b038316610a08576000826001600160a01b03168260405160006040518083038185875af1925050503d80600081146109b2576040519150601f19603f3d011682016040523d82523d6000602084013e6109b7565b606091505b5050905080610a025760405162461bcd60e51b815260206004820152601760248201527653484f59553a205452414e534645525f4641494c55524560481b60448201526064016102ae565b50505050565b610a1c6001600160a01b0384168383610a21565b505050565b610a1c8363a9059cbb60e01b8484604051602401610a40929190610f42565b60408051601f198184030181529190526020810180516001600160e01b03166001600160e01b0319909316929092179091526000610ac7826040518060400160405280602081526020017f5361666545524332303a206c6f772d6c6576656c2063616c6c206661696c6564815250856001600160a01b0316610b449092919063ffffffff16565b805190915015610a1c5780806020019051810190610ae59190610e0d565b610a1c5760405162461bcd60e51b815260206004820152602a60248201527f5361666545524332303a204552433230206f7065726174696f6e20646964206e6044820152691bdd081cdd58d8d9595960b21b60648201526084016102ae565b6060610b538484600085610b5d565b90505b9392505050565b606082471015610bbe5760405162461bcd60e51b815260206004820152602660248201527f416464726573733a20696e73756666696369656e742062616c616e636520666f6044820152651c8818d85b1b60d21b60648201526084016102ae565b843b610c0c5760405162461bcd60e51b815260206004820152601d60248201527f416464726573733a2063616c6c20746f206e6f6e2d636f6e747261637400000060448201526064016102ae565b600080866001600160a01b03168587604051610c289190610f26565b60006040518083038185875af1925050503d8060008114610c65576040519150601f19603f3d011682016040523d82523d6000602084013e610c6a565b606091505b5091509150610c7a828286610c85565b979650505050505050565b60608315610c94575081610b56565b825115610ca45782518084602001fd5b8160405162461bcd60e51b81526004016102ae9190610f5b565b828054610cca9061104d565b90600052602060002090601f016020900481019282610cec5760008555610d32565b82601f10610d055782800160ff19823516178555610d32565b82800160010185558215610d32579182015b82811115610d32578235825591602001919060010190610d17565b50610d3e929150610d42565b5090565b5b80821115610d3e5760008155600101610d43565b80356001600160a01b0381168114610d6e57600080fd5b919050565b60008083601f840112610d8557600080fd5b50813567ffffffffffffffff811115610d9d57600080fd5b6020830191508360208260051b8501011115610db857600080fd5b9250929050565b600060208284031215610dd157600080fd5b610b5682610d57565b60008060408385031215610ded57600080fd5b610df683610d57565b9150610e0460208401610d57565b90509250929050565b600060208284031215610e1f57600080fd5b81518015158114610b5657600080fd5b60008060008060008060608789031215610e4857600080fd5b863567ffffffffffffffff80821115610e6057600080fd5b818901915089601f830112610e7457600080fd5b813581811115610e8357600080fd5b8a6020828501011115610e9557600080fd5b602092830198509650908801359080821115610eb057600080fd5b610ebc8a838b01610d73565b90965094506040890135915080821115610ed557600080fd5b50610ee289828a01610d73565b979a9699509497509295939492505050565b600060208284031215610f0657600080fd5b5035919050565b600060208284031215610f1f57600080fd5b5051919050565b60008251610f38818460208701611021565b9190910192915050565b6001600160a01b03929092168252602082015260400190565b6020815260008251806020840152610f7a816040850160208701611021565b601f01601f19169190910160400192915050565b6020808252600990820152682327a92124a22222a760b91b604082015260600190565b60008219821115610fc457610fc46110a3565b500190565b600082610fe657634e487b7160e01b600052601260045260246000fd5b500490565b6000816000190483118215151615611005576110056110a3565b500290565b60008282101561101c5761101c6110a3565b500390565b60005b8381101561103c578181015183820152602001611024565b83811115610a025750506000910152565b600181811c9082168061106157607f821691505b6020821081141561108257634e487b7160e01b600052602260045260246000fd5b50919050565b600060001982141561109c5761109c6110a3565b5060010190565b634e487b7160e01b600052601160045260246000fd5b634e487b7160e01b600052603260045260246000fdfea264697066735822122037774467fcd570cc016a88bf4f41bb662d247ad543877f8d001882d9db394ebd64736f6c63430008060033",
  "devdoc": {
    "kind": "dev",
    "methods": {},
    "version": 1
  },
  "userdoc": {
    "kind": "user",
    "methods": {},
    "version": 1
  },
  "storageLayout": {
    "storage": [
      {
        "astId": 1448,
        "contract": "contracts/PaymentSplitterFactory.sol:PaymentSplitterFactory",
        "label": "_target",
        "offset": 0,
        "slot": "0",
        "type": "t_address"
      }
    ],
    "types": {
      "t_address": {
        "encoding": "inplace",
        "label": "address",
        "numberOfBytes": "20"
      }
    }
  }
}