{
  "address": "0xF6A81fd3a0Ab1ba4b32E9D5F451a3B8E90933862",
  "abi": [
    {
      "inputs": [],
      "stateMutability": "nonpayable",
      "type": "constructor"
    },
    {
      "anonymous": false,
      "inputs": [
        {
          "indexed": true,
          "internalType": "address",
          "name": "owner",
          "type": "address"
        },
        {
          "indexed": false,
          "internalType": "string",
          "name": "title",
          "type": "string"
        },
        {
          "indexed": false,
          "internalType": "address[]",
          "name": "payees",
          "type": "address[]"
        },
        {
          "indexed": false,
          "internalType": "uint256[]",
          "name": "shares",
          "type": "uint256[]"
        },
        {
          "indexed": false,
          "internalType": "address",
          "name": "splitter",
          "type": "address"
        }
      ],
      "name": "DeployPaymentSplitter",
      "type": "event"
    },
    {
      "inputs": [
        {
          "internalType": "address",
          "name": "owner",
          "type": "address"
        },
        {
          "internalType": "string",
          "name": "title",
          "type": "string"
        },
        {
          "internalType": "address[]",
          "name": "payees",
          "type": "address[]"
        },
        {
          "internalType": "uint256[]",
          "name": "shares",
          "type": "uint256[]"
        }
      ],
      "name": "deployPaymentSplitter",
      "outputs": [
        {
          "internalType": "address",
          "name": "splitter",
          "type": "address"
        }
      ],
      "stateMutability": "nonpayable",
      "type": "function"
    },
    {
      "inputs": [
        {
          "internalType": "address",
          "name": "query",
          "type": "address"
        }
      ],
      "name": "isPaymentSplitter",
      "outputs": [
        {
          "internalType": "bool",
          "name": "result",
          "type": "bool"
        }
      ],
      "stateMutability": "view",
      "type": "function"
    }
  ],
  "transactionHash": "0x92241f7996f9a02ce6f6f1e8bb55f0c5f2c55c4ffa22b23b16f51c5b73419037",
  "args": [],
  "solcInputHash": "6e36514f860638dace4e1919e2294d9d",
  "bytecode": "0x60806040523480156200001157600080fd5b506000604051620000229062000217565b604051809103906000f0801580156200003f573d6000803e3d6000fd5b5090506000600167ffffffffffffffff811115620000625762000061620004b6565b5b604051908082528060200260200182016040528015620000915781602001602082028036833780820191505090505b5090503381600081518110620000ac57620000ab62000487565b5b602002602001019073ffffffffffffffffffffffffffffffffffffffff16908173ffffffffffffffffffffffffffffffffffffffff16815250506000600167ffffffffffffffff811115620001065762000105620004b6565b5b604051908082528060200260200182016040528015620001355781602001602082028036833780820191505090505b50905060018160008151811062000151576200015062000487565b5b6020026020010181815250508273ffffffffffffffffffffffffffffffffffffffff166324f3ae7883836040518363ffffffff1660e01b81526004016200019a92919062000376565b600060405180830381600087803b158015620001b557600080fd5b505af1158015620001ca573d6000803e3d6000fd5b50505050826000806101000a81548173ffffffffffffffffffffffffffffffffffffffff021916908373ffffffffffffffffffffffffffffffffffffffff160217905550505050620004e8565b6120aa8062000edd83390190565b600062000233838362000259565b60208301905092915050565b60006200024d838362000365565b60208301905092915050565b620002648162000449565b82525050565b60006200027782620003e6565b62000283818562000416565b93506200029083620003c6565b8060005b83811015620002c7578151620002ab888262000225565b9750620002b883620003fc565b92505060018101905062000294565b5085935050505092915050565b6000620002e182620003f1565b620002ed818562000427565b9350620002fa83620003d6565b8060005b83811015620003315781516200031588826200023f565b9750620003228362000409565b925050600181019050620002fe565b5085935050505092915050565b60006200034d60008362000438565b91506200035a82620004e5565b600082019050919050565b62000370816200047d565b82525050565b6000606082019050818103600083015262000391816200033e565b90508181036020830152620003a781856200026a565b90508181036040830152620003bd8184620002d4565b90509392505050565b6000819050602082019050919050565b6000819050602082019050919050565b600081519050919050565b600081519050919050565b6000602082019050919050565b6000602082019050919050565b600082825260208201905092915050565b600082825260208201905092915050565b600082825260208201905092915050565b600062000456826200045d565b9050919050565b600073ffffffffffffffffffffffffffffffffffffffff82169050919050565b6000819050919050565b7f4e487b7100000000000000000000000000000000000000000000000000000000600052603260045260246000fd5b7f4e487b7100000000000000000000000000000000000000000000000000000000600052604160045260246000fd5b50565b6109e580620004f86000396000f3fe608060405234801561001057600080fd5b50600436106100365760003560e01c806328da4a791461003b578063838e970c1461006b575b600080fd5b610055600480360381019061005091906104b5565b61009b565b604051610062919061075c565b60405180910390f35b610085600480360381019061008091906104e2565b6100ce565b6040516100929190610741565b60405180910390f35b60006100c760008054906101000a900473ffffffffffffffffffffffffffffffffffffffff16836101f8565b9050919050565b600061019160008054906101000a900473ffffffffffffffffffffffffffffffffffffffff1688888888888860405160240161010f96959493929190610777565b6040516020818303038152906040527f24f3ae78000000000000000000000000000000000000000000000000000000007bffffffffffffffffffffffffffffffffffffffffffffffffffffffff19166020820180517bffffffffffffffffffffffffffffffffffffffffffffffffffffffff838183161783525050505061027a565b90508773ffffffffffffffffffffffffffffffffffffffff167f89bac4a62a028c1569fa1634d2c4f9c8f0685844f9f48689be50bfa7fbb7429e888888888888886040516101e597969594939291906107c9565b60405180910390a2979650505050505050565b6000808360601b90506040517f363d3d373d3d3d363d7300000000000000000000000000000000000000000000815281600a8201527f5af43d82803e903d91602b57fd5bf30000000000000000000000000000000000601e82015260408101602d600082873c600d810151600d83015114815183511416935050505092915050565b6000808360601b90506040517f3d602d80600a3d3981f3363d3d373d3d3d363d7300000000000000000000000081528160148201527f5af43d82803e903d91602b57fd5bf3000000000000000000000000000000000060288201526037816000f09250506000835111156103975760008273ffffffffffffffffffffffffffffffffffffffff168460405161030f919061072a565b6000604051808303816000865af19150503d806000811461034c576040519150601f19603f3d011682016040523d82523d6000602084013e610351565b606091505b5050905080610395576040517f08c379a000000000000000000000000000000000000000000000000000000000815260040161038c90610829565b60405180910390fd5b505b5092915050565b6000813590506103ad81610998565b92915050565b60008083601f8401126103c9576103c8610945565b5b8235905067ffffffffffffffff8111156103e6576103e5610940565b5b6020830191508360208202830111156104025761040161094a565b5b9250929050565b60008083601f84011261041f5761041e610945565b5b8235905067ffffffffffffffff81111561043c5761043b610940565b5b6020830191508360208202830111156104585761045761094a565b5b9250929050565b60008083601f84011261047557610474610945565b5b8235905067ffffffffffffffff81111561049257610491610940565b5b6020830191508360018202830111156104ae576104ad61094a565b5b9250929050565b6000602082840312156104cb576104ca610959565b5b60006104d98482850161039e565b91505092915050565b60008060008060008060006080888a03121561050157610500610959565b5b600061050f8a828b0161039e565b975050602088013567ffffffffffffffff8111156105305761052f61094f565b5b61053c8a828b0161045f565b9650965050604088013567ffffffffffffffff81111561055f5761055e61094f565b5b61056b8a828b016103b3565b9450945050606088013567ffffffffffffffff81111561058e5761058d61094f565b5b61059a8a828b01610409565b925092505092959891949750929550565b60006105b783836105c3565b60208301905092915050565b6105cc816108c0565b82525050565b6105db816108c0565b82525050565b60006105ed838561086b565b93506105f882610849565b8060005b858110156106315761060e82846108a9565b61061888826105ab565b97506106238361085e565b9250506001810190506105fc565b5085925050509392505050565b600061064a838561087c565b93507f07ffffffffffffffffffffffffffffffffffffffffffffffffffffffffffffff83111561067d5761067c610954565b5b60208302925061068e8385846108fe565b82840190509392505050565b6106a3816108d2565b82525050565b60006106b482610853565b6106be818561088d565b93506106ce81856020860161090d565b80840191505092915050565b60006106e68385610898565b93506106f38385846108fe565b6106fc8361095e565b840190509392505050565b6000610714601383610898565b915061071f8261096f565b602082019050919050565b600061073682846106a9565b915081905092915050565b600060208201905061075660008301846105d2565b92915050565b6000602082019050610771600083018461069a565b92915050565b6000606082019050818103600083015261079281888a6106da565b905081810360208301526107a78186886105e1565b905081810360408301526107bc81848661063e565b9050979650505050505050565b600060808201905081810360008301526107e481898b6106da565b905081810360208301526107f98187896105e1565b9050818103604083015261080e81858761063e565b905061081d60608301846105d2565b98975050505050505050565b6000602082019050818103600083015261084281610707565b9050919050565b6000819050919050565b600081519050919050565b6000602082019050919050565b600082825260208201905092915050565b600082825260208201905092915050565b600081905092915050565b600082825260208201905092915050565b60006108b8602084018461039e565b905092915050565b60006108cb826108de565b9050919050565b60008115159050919050565b600073ffffffffffffffffffffffffffffffffffffffff82169050919050565b82818337600083830152505050565b60005b8381101561092b578082015181840152602081019050610910565b8381111561093a576000848401525b50505050565b600080fd5b600080fd5b600080fd5b600080fd5b600080fd5b600080fd5b6000601f19601f8301169050919050565b7f53484f59553a2043414c4c5f4641494c55524500000000000000000000000000600082015250565b6109a1816108c0565b81146109ac57600080fd5b5056fea2646970667358221220cac5f4b5be659ef740fbf17b215ec314e16b5669d5cf4d6d4284d355a78a455064736f6c63430008060033608060405234801561001057600080fd5b5061208a806100206000396000f3fe60806040526004361061008a5760003560e01c80634a79d50c116100595780634a79d50c1461018957806363037b0c146101b4578063ce7c2ac2146101f1578063d4fac45d1461022e578063d79779b21461026b576100ca565b806324f3ae78146100cf5780633a98ef39146100f8578063406072a91461012357806348b7504414610160576100ca565b366100ca577f6ef95f06320e7a25a04a175ca677b7052bdd97131872c2192525a629f51be77033346040516100c09291906118a5565b60405180910390a1005b600080fd5b3480156100db57600080fd5b506100f660048036038101906100f191906114ca565b6102a8565b005b34801561010457600080fd5b5061010d610493565b60405161011a9190611a70565b60405180910390f35b34801561012f57600080fd5b5061014a6004803603810190610145919061145d565b610499565b6040516101579190611a70565b60405180910390f35b34801561016c57600080fd5b506101876004803603810190610182919061145d565b6104be565b005b34801561019557600080fd5b5061019e610833565b6040516101ab91906118ce565b60405180910390f35b3480156101c057600080fd5b506101db60048036038101906101d6919061157e565b6108c1565b6040516101e89190611853565b60405180910390f35b3480156101fd57600080fd5b5061021860048036038101906102139190611430565b610900565b6040516102259190611a70565b60405180910390f35b34801561023a57600080fd5b506102556004803603810190610250919061145d565b610918565b6040516102629190611a70565b60405180910390f35b34801561027757600080fd5b50610292600480360381019061028d9190611430565b610b00565b60405161029f9190611a70565b60405180910390f35b600060019054906101000a900460ff16806102ce575060008054906101000a900460ff16155b61030d576040517f08c379a000000000000000000000000000000000000000000000000000000000815260040161030490611990565b60405180910390fd5b60008060019054906101000a900460ff16159050801561035d576001600060016101000a81548160ff02191690831515021790555060016000806101000a81548160ff0219169083151502179055505b8282905085859050146103a5576040517f08c379a000000000000000000000000000000000000000000000000000000000815260040161039c906119f0565b60405180910390fd5b600085859050116103eb576040517f08c379a00000000000000000000000000000000000000000000000000000000081526004016103e290611930565b60405180910390fd5b8686600191906103fc929190611237565b5060005b858590508110156104685761045586868381811061042157610420611d55565b5b90506020020160208101906104369190611430565b85858481811061044957610448611d55565b5b90506020020135610b18565b808061046090611c7f565b915050610400565b50801561048a5760008060016101000a81548160ff0219169083151502179055505b50505050505050565b60025481565b6005602052816000526040600020602052806000526040600020600091509150505481565b6000600460008373ffffffffffffffffffffffffffffffffffffffff1673ffffffffffffffffffffffffffffffffffffffff1681526020019081526020016000205411610540576040517f08c379a000000000000000000000000000000000000000000000000000000000815260040161053790611970565b60405180910390fd5b6000600360008473ffffffffffffffffffffffffffffffffffffffff1673ffffffffffffffffffffffffffffffffffffffff168152602001908152602001600020546105ab308573ffffffffffffffffffffffffffffffffffffffff16610d4590919063ffffffff16565b6105b59190611abd565b90506000600560008573ffffffffffffffffffffffffffffffffffffffff1673ffffffffffffffffffffffffffffffffffffffff16815260200190815260200160002060008473ffffffffffffffffffffffffffffffffffffffff1673ffffffffffffffffffffffffffffffffffffffff16815260200190815260200160002054600254600460008673ffffffffffffffffffffffffffffffffffffffff1673ffffffffffffffffffffffffffffffffffffffff16815260200190815260200160002054846106849190611b44565b61068e9190611b13565b6106989190611b9e565b905060008114156106de576040517f08c379a00000000000000000000000000000000000000000000000000000000081526004016106d5906119d0565b60405180910390fd5b80600560008673ffffffffffffffffffffffffffffffffffffffff1673ffffffffffffffffffffffffffffffffffffffff16815260200190815260200160002060008573ffffffffffffffffffffffffffffffffffffffff1673ffffffffffffffffffffffffffffffffffffffff168152602001908152602001600020600082825461076a9190611abd565b9250508190555080600360008673ffffffffffffffffffffffffffffffffffffffff1673ffffffffffffffffffffffffffffffffffffffff16815260200190815260200160002060008282546107c09190611abd565b925050819055506107f283828673ffffffffffffffffffffffffffffffffffffffff16610e2c9092919063ffffffff16565b7f8ac5b3c2902b21b6bbb4d99ec195e28a242cb6a1777804db10b84d91e20064298484836040516108259392919061186e565b60405180910390a150505050565b6001805461084090611c4d565b80601f016020809104026020016040519081016040528092919081815260200182805461086c90611c4d565b80156108b95780601f1061088e576101008083540402835291602001916108b9565b820191906000526020600020905b81548152906001019060200180831161089c57829003601f168201915b505050505081565b600681815481106108d157600080fd5b906000526020600020016000915054906101000a900473ffffffffffffffffffffffffffffffffffffffff1681565b60046020528060005260406000206000915090505481565b600080600460008473ffffffffffffffffffffffffffffffffffffffff1673ffffffffffffffffffffffffffffffffffffffff168152602001908152602001600020541161099b576040517f08c379a000000000000000000000000000000000000000000000000000000000815260040161099290611970565b60405180910390fd5b6000600360008573ffffffffffffffffffffffffffffffffffffffff1673ffffffffffffffffffffffffffffffffffffffff16815260200190815260200160002054610a06308673ffffffffffffffffffffffffffffffffffffffff16610d4590919063ffffffff16565b610a109190611abd565b90506000600560008673ffffffffffffffffffffffffffffffffffffffff1673ffffffffffffffffffffffffffffffffffffffff16815260200190815260200160002060008573ffffffffffffffffffffffffffffffffffffffff1673ffffffffffffffffffffffffffffffffffffffff16815260200190815260200160002054600254600460008773ffffffffffffffffffffffffffffffffffffffff1673ffffffffffffffffffffffffffffffffffffffff1681526020019081526020016000205484610adf9190611b44565b610ae99190611b13565b610af39190611b9e565b9050809250505092915050565b60036020528060005260406000206000915090505481565b600073ffffffffffffffffffffffffffffffffffffffff168273ffffffffffffffffffffffffffffffffffffffff161415610b88576040517f08c379a0000000000000000000000000000000000000000000000000000000008152600401610b7f906118f0565b60405180910390fd5b60008111610bcb576040517f08c379a0000000000000000000000000000000000000000000000000000000008152600401610bc290611950565b60405180910390fd5b6000600460008473ffffffffffffffffffffffffffffffffffffffff1673ffffffffffffffffffffffffffffffffffffffff1681526020019081526020016000205414610c4d576040517f08c379a0000000000000000000000000000000000000000000000000000000008152600401610c4490611a10565b60405180910390fd5b6006829080600181540180825580915050600190039060005260206000200160009091909190916101000a81548173ffffffffffffffffffffffffffffffffffffffff021916908373ffffffffffffffffffffffffffffffffffffffff16021790555080600460008473ffffffffffffffffffffffffffffffffffffffff1673ffffffffffffffffffffffffffffffffffffffff1681526020019081526020016000208190555080600254610d029190611abd565b6002819055507f40c340f65e17194d14ddddb073d3c9f888e3cb52b5aae0c6c7706b4fbc905fac8282604051610d399291906118a5565b60405180910390a15050565b60008073ffffffffffffffffffffffffffffffffffffffff168373ffffffffffffffffffffffffffffffffffffffff161415610d9a578173ffffffffffffffffffffffffffffffffffffffff16319050610e26565b8273ffffffffffffffffffffffffffffffffffffffff166370a08231836040518263ffffffff1660e01b8152600401610dd39190611853565b60206040518083038186803b158015610deb57600080fd5b505afa158015610dff573d6000803e3d6000fd5b505050506040513d601f19601f82011682018060405250810190610e2391906115ab565b90505b92915050565b600073ffffffffffffffffffffffffffffffffffffffff168373ffffffffffffffffffffffffffffffffffffffff161415610f135760008273ffffffffffffffffffffffffffffffffffffffff1682604051610e879061183e565b60006040518083038185875af1925050503d8060008114610ec4576040519150601f19603f3d011682016040523d82523d6000602084013e610ec9565b606091505b5050905080610f0d576040517f08c379a0000000000000000000000000000000000000000000000000000000008152600401610f04906119b0565b60405180910390fd5b50610f3f565b610f3e82828573ffffffffffffffffffffffffffffffffffffffff16610f449092919063ffffffff16565b5b505050565b610fc58363a9059cbb60e01b8484604051602401610f639291906118a5565b604051602081830303815290604052907bffffffffffffffffffffffffffffffffffffffffffffffffffffffff19166020820180517bffffffffffffffffffffffffffffffffffffffffffffffffffffffff8381831617835250505050610fca565b505050565b600061102c826040518060400160405280602081526020017f5361666545524332303a206c6f772d6c6576656c2063616c6c206661696c65648152508573ffffffffffffffffffffffffffffffffffffffff166110919092919063ffffffff16565b905060008151111561108c578080602001905181019061104c919061149d565b61108b576040517f08c379a000000000000000000000000000000000000000000000000000000000815260040161108290611a50565b60405180910390fd5b5b505050565b60606110a084846000856110a9565b90509392505050565b6060824710156110ee576040517f08c379a00000000000000000000000000000000000000000000000000000000081526004016110e590611910565b60405180910390fd5b6110f7856111bd565b611136576040517f08c379a000000000000000000000000000000000000000000000000000000000815260040161112d90611a30565b60405180910390fd5b6000808673ffffffffffffffffffffffffffffffffffffffff16858760405161115f9190611827565b60006040518083038185875af1925050503d806000811461119c576040519150601f19603f3d011682016040523d82523d6000602084013e6111a1565b606091505b50915091506111b18282866111d0565b92505050949350505050565b600080823b905060008111915050919050565b606083156111e057829050611230565b6000835111156111f35782518084602001fd5b816040517f08c379a000000000000000000000000000000000000000000000000000000000815260040161122791906118ce565b60405180910390fd5b9392505050565b82805461124390611c4d565b90600052602060002090601f01602090048101928261126557600085556112ac565b82601f1061127e57803560ff19168380011785556112ac565b828001600101855582156112ac579182015b828111156112ab578235825591602001919060010190611290565b5b5090506112b991906112bd565b5090565b5b808211156112d65760008160009055506001016112be565b5090565b6000813590506112e98161200f565b92915050565b60008083601f84011261130557611304611d89565b5b8235905067ffffffffffffffff81111561132257611321611d84565b5b60208301915083602082028301111561133e5761133d611d8e565b5b9250929050565b60008083601f84011261135b5761135a611d89565b5b8235905067ffffffffffffffff81111561137857611377611d84565b5b60208301915083602082028301111561139457611393611d8e565b5b9250929050565b6000815190506113aa81612026565b92915050565b60008083601f8401126113c6576113c5611d89565b5b8235905067ffffffffffffffff8111156113e3576113e2611d84565b5b6020830191508360018202830111156113ff576113fe611d8e565b5b9250929050565b6000813590506114158161203d565b92915050565b60008151905061142a8161203d565b92915050565b60006020828403121561144657611445611d98565b5b6000611454848285016112da565b91505092915050565b6000806040838503121561147457611473611d98565b5b6000611482858286016112da565b9250506020611493858286016112da565b9150509250929050565b6000602082840312156114b3576114b2611d98565b5b60006114c18482850161139b565b91505092915050565b600080600080600080606087890312156114e7576114e6611d98565b5b600087013567ffffffffffffffff81111561150557611504611d93565b5b61151189828a016113b0565b9650965050602087013567ffffffffffffffff81111561153457611533611d93565b5b61154089828a016112ef565b9450945050604087013567ffffffffffffffff81111561156357611562611d93565b5b61156f89828a01611345565b92509250509295509295509295565b60006020828403121561159457611593611d98565b5b60006115a284828501611406565b91505092915050565b6000602082840312156115c1576115c0611d98565b5b60006115cf8482850161141b565b91505092915050565b6115e181611bd2565b82525050565b60006115f282611a8b565b6115fc8185611aa1565b935061160c818560208601611c1a565b80840191505092915050565b600061162382611a96565b61162d8185611aac565b935061163d818560208601611c1a565b61164681611d9d565b840191505092915050565b600061165e600f83611aac565b915061166982611dae565b602082019050919050565b6000611681602683611aac565b915061168c82611dd7565b604082019050919050565b60006116a4601083611aac565b91506116af82611e26565b602082019050919050565b60006116c7600e83611aac565b91506116d282611e4f565b602082019050919050565b60006116ea600983611aac565b91506116f582611e78565b602082019050919050565b600061170d602e83611aac565b915061171882611ea1565b604082019050919050565b6000611730601783611aac565b915061173b82611ef0565b602082019050919050565b6000611753600a83611aac565b915061175e82611f19565b602082019050919050565b6000611776601183611aac565b915061178182611f42565b602082019050919050565b6000611799600083611aa1565b91506117a482611f6b565b600082019050919050565b60006117bc600d83611aac565b91506117c782611f6e565b602082019050919050565b60006117df601d83611aac565b91506117ea82611f97565b602082019050919050565b6000611802602a83611aac565b915061180d82611fc0565b604082019050919050565b61182181611c10565b82525050565b600061183382846115e7565b915081905092915050565b60006118498261178c565b9150819050919050565b600060208201905061186860008301846115d8565b92915050565b600060608201905061188360008301866115d8565b61189060208301856115d8565b61189d6040830184611818565b949350505050565b60006040820190506118ba60008301856115d8565b6118c76020830184611818565b9392505050565b600060208201905081810360008301526118e88184611618565b905092915050565b6000602082019050818103600083015261190981611651565b9050919050565b6000602082019050818103600083015261192981611674565b9050919050565b6000602082019050818103600083015261194981611697565b9050919050565b60006020820190508181036000830152611969816116ba565b9050919050565b60006020820190508181036000830152611989816116dd565b9050919050565b600060208201905081810360008301526119a981611700565b9050919050565b600060208201905081810360008301526119c981611723565b9050919050565b600060208201905081810360008301526119e981611746565b9050919050565b60006020820190508181036000830152611a0981611769565b9050919050565b60006020820190508181036000830152611a29816117af565b9050919050565b60006020820190508181036000830152611a49816117d2565b9050919050565b60006020820190508181036000830152611a69816117f5565b9050919050565b6000602082019050611a856000830184611818565b92915050565b600081519050919050565b600081519050919050565b600081905092915050565b600082825260208201905092915050565b6000611ac882611c10565b9150611ad383611c10565b9250827fffffffffffffffffffffffffffffffffffffffffffffffffffffffffffffffff03821115611b0857611b07611cc8565b5b828201905092915050565b6000611b1e82611c10565b9150611b2983611c10565b925082611b3957611b38611cf7565b5b828204905092915050565b6000611b4f82611c10565b9150611b5a83611c10565b9250817fffffffffffffffffffffffffffffffffffffffffffffffffffffffffffffffff0483118215151615611b9357611b92611cc8565b5b828202905092915050565b6000611ba982611c10565b9150611bb483611c10565b925082821015611bc757611bc6611cc8565b5b828203905092915050565b6000611bdd82611bf0565b9050919050565b60008115159050919050565b600073ffffffffffffffffffffffffffffffffffffffff82169050919050565b6000819050919050565b60005b83811015611c38578082015181840152602081019050611c1d565b83811115611c47576000848401525b50505050565b60006002820490506001821680611c6557607f821691505b60208210811415611c7957611c78611d26565b5b50919050565b6000611c8a82611c10565b91507fffffffffffffffffffffffffffffffffffffffffffffffffffffffffffffffff821415611cbd57611cbc611cc8565b5b600182019050919050565b7f4e487b7100000000000000000000000000000000000000000000000000000000600052601160045260246000fd5b7f4e487b7100000000000000000000000000000000000000000000000000000000600052601260045260246000fd5b7f4e487b7100000000000000000000000000000000000000000000000000000000600052602260045260246000fd5b7f4e487b7100000000000000000000000000000000000000000000000000000000600052603260045260246000fd5b600080fd5b600080fd5b600080fd5b600080fd5b600080fd5b6000601f19601f8301169050919050565b7f494e56414c49445f414444524553530000000000000000000000000000000000600082015250565b7f416464726573733a20696e73756666696369656e742062616c616e636520666f60008201527f722063616c6c0000000000000000000000000000000000000000000000000000602082015250565b7f4c454e4754485f544f4f5f53484f525400000000000000000000000000000000600082015250565b7f494e56414c49445f534841524553000000000000000000000000000000000000600082015250565b7f464f5242494444454e0000000000000000000000000000000000000000000000600082015250565b7f496e697469616c697a61626c653a20636f6e747261637420697320616c72656160008201527f647920696e697469616c697a6564000000000000000000000000000000000000602082015250565b7f53484f59553a205452414e534645525f4641494c555245000000000000000000600082015250565b7f4e4f5f5041594d454e5400000000000000000000000000000000000000000000600082015250565b7f4c454e475448535f4e4f545f455155414c000000000000000000000000000000600082015250565b50565b7f414c52454144595f414444454400000000000000000000000000000000000000600082015250565b7f416464726573733a2063616c6c20746f206e6f6e2d636f6e7472616374000000600082015250565b7f5361666545524332303a204552433230206f7065726174696f6e20646964206e60008201527f6f74207375636365656400000000000000000000000000000000000000000000602082015250565b61201881611bd2565b811461202357600080fd5b50565b61202f81611be4565b811461203a57600080fd5b50565b61204681611c10565b811461205157600080fd5b5056fea26469706673582212203809260b048ac74a8f953505dc24ba6c853e179d36dfb89a990ee332c0bb35ef64736f6c63430008060033",
  "devdoc": {
    "kind": "dev",
    "methods": {},
    "version": 1
  },
  "userdoc": {
    "kind": "user",
    "methods": {},
    "version": 1
  },
  "storageLayout": {
    "storage": [
      {
        "astId": 4472,
        "contract": "contracts/PaymentSplitterFactory.sol:PaymentSplitterFactory",
        "label": "_target",
        "offset": 0,
        "slot": "0",
        "type": "t_address"
      }
    ],
    "types": {
      "t_address": {
        "encoding": "inplace",
        "label": "address",
        "numberOfBytes": "20"
      }
    }
  }
}